:020000040000FA
:0400000080313528EE
:100008007E1480310B1F09280A2833282100911DEE
:100018000E280F281A282000911D132814281A28A2
:1000280031088A0030080A00803133282100921DE7
:100038001E281F2825282000921D2328242825282B
:1000480014282100111C29282A2833282000111CD3
:100058002E282F2833288131B921803133287E106A
:10006800090080313728703084000030850009305D
:1000780082317722803120308400003085001530AD
:100088008231772280317E10200081317A297008F0
:100098007104031D5028512885287308031D55280D
:1000A8005628592822000C16D4287303031D5D28EE
:1000B8005E28612822000C17D42802307306031D1D
:1000C800662867286A2822008C17D428033073060C
:1000D800031D6F287028732822000D14D4280430BB
:1000E8007306031D782879287C2822000D15D4284A
:1000F80005307306031D81288228D42822008D1616
:10010800D4281E3070067104031D8B288C2894286F
:1001180022000C120C138C130D100D118D12D42803
:10012800323070067104031D9A289B28D4280130A8
:10013800F9007908F30706307302031CA428A528E0
:10014800A628F3017308203E86008701011CAD280C
:10015800AE28B12822008C14B32822008C10730812
:10016800203E86008701811CBA28BB28BD280C14B4
:10017800BE280C107308203E86008701011DC52883
:10018800C628C8288C15C9288C117308203E8600FB
:100198008701811DD028D128D3280C15D4280C110B
:1001A8000130F0070030F13D00307102333003199F
:1001B8007002031CE028E128E328F001F10108009F
:1001C8008231DF2280318231DC228031FA007A08E4
:1001D800F5008231C2228031003A0319F428F5284B
:1001E800FA280130FA007A08F80023290230FA00C8
:1001F8007A08F80023298231BD228031003A031D94
:10020800062907290B2982312222803111298231BE
:10021800152280318231D6228031F701332982318B
:10022800C7228031003A03191A291B291F29823154
:100238002F228031332982314922803111297808CF
:10024800FA00FB017B08003A03192B2933297A08A5
:10025800013A0319FF28033A0319132933297708A8
:10026800FA007A08F8008231D922803108008231F8
:100278000522813114308231952281310A30823150
:100288008F228131E4302000B9000030BA00823179
:10029800A122813100302000B9000030BA0082313B
:1002A800A7228131B3302000B9000230BA00823170
:1002B8008322813169302000B9000230BA008231CE
:1002C8009B22813170302000B9000230BA0082319F
:1002D800AD228131E8302000B9000230BA00823105
:1002E800892281318231D322813108008131F5217F
:1002F80081314B302000B9000030BA0082317D22B4
:1003080081318B170B178231D022813181313B210A
:1003180081313C302000B9000230BA0082319B2282
:100328008131E5302000B9000230BA008231AD22B7
:1003380081319D298031352820009901FF309700AF
:10034800CE30960011101708B8001608B700210023
:100358001114E7302000B9000230BA0082317D2242
:100368008131313020009800080020001110380831
:10037800FA003708F9008131E4218131200035087D
:1003880036040319C829C929CE2936088A00350830
:100398000A008131080022008C018D0120302100E3
:1003A8008C00DA308D00C83023008D008C012400C9
:1003B8008D018C012100951722009D019E010800E6
:1003C8002000181DE829E929F02918107A08970053
:1003D800790896001814F4297A0897007908960085
:1003E80008008231562281318131CF218131823119
:1003F800622281318231CC2281318131A021813147
:1004080008002400951A092A0A2A142A4030940060
:1004180016302000B9003908240095049601951675
:10042800080020002608270403191B2A1C2A212A51
:1004380027088A0026080A008231080020002C08B4
:100448002D040319282A292A2E2A2D088A002C0867
:100458000A008231080020002E082F040319352ACB
:10046800362A3B2A2F088A002E080A008231080003
:100478007508F9007208203E860087017908810016
:100488000130F9007908F207080020002A082B0437
:1004980003194F2A502A552A2B088A002A080A00CD
:1004A8008231080040302400940016302000B90042
:1004B8003908240095049601951208007830210027
:1004C800990098012200960108008231DC228231CD
:1004D800F9007908F50008008231E2228231F9003A
:1004E8007908F4000800640080010131890B782A3A
:1004F800003420003A08B6003908B500080020008A
:100508003A08AD003908AC00080020003A08A700F6
:100518003908A60008002000B90039082400930013
:1005280008002000B90039082400920008002000C3
:100538003A08AF003908AE00080020003A08B100B8
:100548003908B000080020003A08A9003908A800B6
:10055800080020003A08AB003908AA00080076080D
:100568008231B82282310800F9007908240091000C
:1005780008002400150D150D013908002400140C7D
:10058800890C013908002400140E890C013908006F
:1005980016302100970008002000181408002100D8
:1005A8009115080024009614080024001516080068
:1005B80024001108080020009111080024001208E6
:0A05C8000800F20108000800080016
:020000040001F9
:04000E00E4FFFFFE0E
:00000001FF
